{
  "address": "0x5BB995757E8Be755967160C256eF2F8e07a3e579",
  "abi": [
    {
      "inputs": [
        {
          "internalType": "address",
          "name": "_vaultAnchor",
          "type": "address"
        }
      ],
      "stateMutability": "nonpayable",
      "type": "constructor"
    },
    {
      "inputs": [],
      "name": "CommitmentInvalid",
      "type": "error"
    },
    {
      "inputs": [],
      "name": "InvalidProof",
      "type": "error"
    },
    {
      "inputs": [],
      "name": "NonceAlreadyUsed",
      "type": "error"
    },
    {
      "inputs": [
        {
          "internalType": "address",
          "name": "owner",
          "type": "address"
        }
      ],
      "name": "OwnableInvalidOwner",
      "type": "error"
    },
    {
      "inputs": [
        {
          "internalType": "address",
          "name": "account",
          "type": "address"
        }
      ],
      "name": "OwnableUnauthorizedAccount",
      "type": "error"
    },
    {
      "inputs": [],
      "name": "PolicyInactive",
      "type": "error"
    },
    {
      "inputs": [],
      "name": "PolicyNotFound",
      "type": "error"
    },
    {
      "anonymous": false,
      "inputs": [
        {
          "indexed": true,
          "internalType": "address",
          "name": "previousOwner",
          "type": "address"
        },
        {
          "indexed": true,
          "internalType": "address",
          "name": "newOwner",
          "type": "address"
        }
      ],
      "name": "OwnershipTransferred",
      "type": "event"
    },
    {
      "anonymous": false,
      "inputs": [
        {
          "indexed": true,
          "internalType": "bytes32",
          "name": "policyId",
          "type": "bytes32"
        },
        {
          "indexed": false,
          "internalType": "string",
          "name": "schemaId",
          "type": "string"
        },
        {
          "indexed": false,
          "internalType": "address[]",
          "name": "allowedIssuers",
          "type": "address[]"
        }
      ],
      "name": "PolicyAdded",
      "type": "event"
    },
    {
      "anonymous": false,
      "inputs": [
        {
          "indexed": true,
          "internalType": "address",
          "name": "user",
          "type": "address"
        },
        {
          "indexed": true,
          "internalType": "bytes32",
          "name": "policyId",
          "type": "bytes32"
        },
        {
          "indexed": false,
          "internalType": "bytes32",
          "name": "commitment",
          "type": "bytes32"
        },
        {
          "indexed": false,
          "internalType": "bool",
          "name": "success",
          "type": "bool"
        },
        {
          "indexed": false,
          "internalType": "uint256",
          "name": "timestamp",
          "type": "uint256"
        }
      ],
      "name": "ProofVerified",
      "type": "event"
    },
    {
      "inputs": [
        {
          "internalType": "bytes32",
          "name": "policyId",
          "type": "bytes32"
        },
        {
          "internalType": "string",
          "name": "schemaId",
          "type": "string"
        },
        {
          "internalType": "address[]",
          "name": "allowedIssuers",
          "type": "address[]"
        }
      ],
      "name": "addPolicy",
      "outputs": [],
      "stateMutability": "nonpayable",
      "type": "function"
    },
    {
      "inputs": [
        {
          "internalType": "address",
          "name": "user",
          "type": "address"
        },
        {
          "internalType": "bytes32",
          "name": "policyId",
          "type": "bytes32"
        }
      ],
      "name": "isVerified",
      "outputs": [
        {
          "internalType": "bool",
          "name": "",
          "type": "bool"
        }
      ],
      "stateMutability": "view",
      "type": "function"
    },
    {
      "inputs": [],
      "name": "mockVerificationEnabled",
      "outputs": [
        {
          "internalType": "bool",
          "name": "",
          "type": "bool"
        }
      ],
      "stateMutability": "view",
      "type": "function"
    },
    {
      "inputs": [
        {
          "internalType": "address",
          "name": "",
          "type": "address"
        }
      ],
      "name": "nonces",
      "outputs": [
        {
          "internalType": "uint256",
          "name": "",
          "type": "uint256"
        }
      ],
      "stateMutability": "view",
      "type": "function"
    },
    {
      "inputs": [],
      "name": "owner",
      "outputs": [
        {
          "internalType": "address",
          "name": "",
          "type": "address"
        }
      ],
      "stateMutability": "view",
      "type": "function"
    },
    {
      "inputs": [
        {
          "internalType": "bytes32",
          "name": "",
          "type": "bytes32"
        }
      ],
      "name": "policies",
      "outputs": [
        {
          "internalType": "string",
          "name": "schemaId",
          "type": "string"
        },
        {
          "internalType": "bool",
          "name": "active",
          "type": "bool"
        }
      ],
      "stateMutability": "view",
      "type": "function"
    },
    {
      "inputs": [],
      "name": "renounceOwnership",
      "outputs": [],
      "stateMutability": "nonpayable",
      "type": "function"
    },
    {
      "inputs": [
        {
          "internalType": "bool",
          "name": "enabled",
          "type": "bool"
        }
      ],
      "name": "setMockVerificationEnabled",
      "outputs": [],
      "stateMutability": "nonpayable",
      "type": "function"
    },
    {
      "inputs": [
        {
          "internalType": "address",
          "name": "_vaultAnchor",
          "type": "address"
        }
      ],
      "name": "setVaultAnchor",
      "outputs": [],
      "stateMutability": "nonpayable",
      "type": "function"
    },
    {
      "inputs": [
        {
          "internalType": "address",
          "name": "newOwner",
          "type": "address"
        }
      ],
      "name": "transferOwnership",
      "outputs": [],
      "stateMutability": "nonpayable",
      "type": "function"
    },
    {
      "inputs": [],
      "name": "vaultAnchor",
      "outputs": [
        {
          "internalType": "contract IVaultAnchor",
          "name": "",
          "type": "address"
        }
      ],
      "stateMutability": "view",
      "type": "function"
    },
    {
      "inputs": [
        {
          "internalType": "address",
          "name": "",
          "type": "address"
        },
        {
          "internalType": "bytes32",
          "name": "",
          "type": "bytes32"
        }
      ],
      "name": "verifications",
      "outputs": [
        {
          "internalType": "bool",
          "name": "verified",
          "type": "bool"
        },
        {
          "internalType": "uint256",
          "name": "timestamp",
          "type": "uint256"
        },
        {
          "internalType": "bytes32",
          "name": "commitment",
          "type": "bytes32"
        },
        {
          "internalType": "bytes32",
          "name": "policyId",
          "type": "bytes32"
        }
      ],
      "stateMutability": "view",
      "type": "function"
    },
    {
      "inputs": [
        {
          "internalType": "bytes",
          "name": "proof",
          "type": "bytes"
        },
        {
          "internalType": "bytes32[]",
          "name": "publicSignals",
          "type": "bytes32[]"
        },
        {
          "internalType": "bytes32",
          "name": "policyId",
          "type": "bytes32"
        }
      ],
      "name": "verifyProof",
      "outputs": [
        {
          "internalType": "bool",
          "name": "",
          "type": "bool"
        }
      ],
      "stateMutability": "nonpayable",
      "type": "function"
    }
  ],
  "transactionHash": "0x0cee650b00ce62e573ff208a0722f5413b381683e61f65c941ae27648c23fa40",
  "args": [
    "0x6DB3992C31AFc84E442621fff00511e9f26335d1"
  ],
  "numDeployments": 1,
  "solcInputHash": "dd51e8dc02176ed32b2c2063e029919e",
  "bytecode": "0x6080346100d357601f610dec38819003918201601f19168301916001600160401b038311848410176100d8578084926020946040528339810103126100d357516001600160a01b0390818116908190036100d35733156100ba5760005460018060a01b0319903382821617600055604051933391167f8be0079c531659141344cd1fd0a4f28419497f9722a3daafe3b4186f6b6457e0600080a3600160ff1960055416176005556001541617600155610cfd90816100ef8239f35b604051631e4fbdf760e01b815260006004820152602490fd5b600080fd5b634e487b7160e01b600052604160045260246000fdfe6080604052600436101561001257600080fd5b60003560e01c8063013779e314610a4c57806303b00e0714610a2357806319c9d9ba146109b45780631b440615146106c957806344d83e7d14610345578063715018a6146102ec5780637ecebe00146102b25780638da5cb5b146102895780639b79997e14610246578063ba03e205146101b6578063ddbfd8ef14610161578063f008bd531461013e5763f2fde38b146100ab57600080fd5b34610139576020366003190112610139576100c4610a85565b6100cc610c2b565b6001600160a01b0390811690811561012057600054826bffffffffffffffffffffffff60a01b821617600055167f8be0079c531659141344cd1fd0a4f28419497f9722a3daafe3b4186f6b6457e0600080a3005b604051631e4fbdf760e01b815260006004820152602490fd5b600080fd5b3461013957600036600319011261013957602060ff600554166040519015158152f35b346101395760203660031901126101395760043560005260026020526101aa604060002060ff600261019283610b2f565b92015416604051928392604084526040840190610bd4565b90151560208301520390f35b34610139576040366003190112610139576001600160a01b036101d7610a85565b1660005260036020526040600020602435600052602052602060406000206040519061020282610ab7565b60ff8154161515918281526060600360018401549384878501526002810154604085015201549101528161023c575b506040519015158152f35b9050151582610231565b346101395760203660031901126101395761025f610a85565b610267610c2b565b600180546001600160a01b0319166001600160a01b0392909216919091179055005b34610139576000366003190112610139576000546040516001600160a01b039091168152602090f35b34610139576020366003190112610139576001600160a01b036102d3610a85565b1660005260046020526020604060002054604051908152f35b3461013957600036600319011261013957610305610c2b565b600080546001600160a01b0319811682556001600160a01b03167f8be0079c531659141344cd1fd0a4f28419497f9722a3daafe3b4186f6b6457e08280a3005b346101395760603660031901126101395760243567ffffffffffffffff811161013957366023820112156101395780600401359067ffffffffffffffff82116105e657601f1991604051916103a2602085601f8501160184610ad3565b8183523660248383010111610139578160009260246020930183860137830101526044359167ffffffffffffffff831161013957366023840112156101395782600401359067ffffffffffffffff82116105e6578160051b936040519261040c6020870185610ad3565b83526020830190602482968201019036821161013957602401915b8183106106a957505050610439610c2b565b60405161044581610a9b565b838152826020820152600160408201526004356000526002602052604060002091815180519167ffffffffffffffff83116105e65782916104868654610af5565b601f811161066c575b50602091601f841160011461060757506000926105fc575b50508160011b916000199060031b1c19161782555b6001820160208201519081519167ffffffffffffffff83116105e6576801000000000000000083116105e65760209082548484558085106105c9575b500190600052602060002060005b8381106105ac57505050509060026040610531930151151591019060ff801983541691151516179055565b602061054860405193604085526040850190610bd4565b9183830382850152519182815201929060005b81811061058d576004357fdafcc5a09cc801d50d134a97e0e798722b9feea93f1cc8c2ec0c2309dabbcf0685870386a2005b82516001600160a01b031685526020948501949092019160010161055b565b82516001600160a01b031681830155602090920191600101610506565b6105e0908460005285846000209182019101610c14565b896104f8565b634e487b7160e01b600052604160045260246000fd5b0151905087806104a7565b909216918560005260206000209260005b818110610654575090846001959493921061063b575b505050811b0182556104bc565b015160001960f88460031b161c1916905587808061062e565b92936020600181928786015181550195019301610618565b61069990876000526020600020601f860160051c8101916020871061069f575b601f0160051c0190610c14565b8961048f565b909150819061068c565b82356001600160a01b038116810361013957815260209283019201610427565b346101395760603660031901126101395760043567ffffffffffffffff80821161013957366023830112156101395781600401359080821161013957602492838336920101116101395782359181831161013957366023840112156101395782600401359182116101395736848360051b850101116101395760443591826000526020946002865260406000206040519061076382610a9b565b61076c81610b2f565b82526001810160405190818a82549182815201916000528a6000209060005b8c828210610997575050505091816107a960029360ff950382610ad3565b8a850152015416159060408215910152610985578115610971578085013594826002101561095c5760640135336000526004875260406000205481111561094b5733600052600487526040600020558585604460018060a01b0360015416936040519485938492634cef7fcf60e11b84523360048501528301525afa90811561093f57600091610909575b50156108f75761084391610c57565b8061088b575b60405192835215159182848201524260408201527fd7573d4327aee73d4dd6727314deb13613b8f9a9af2bc3e6f7737b9ae838123960603392a3604051908152f35b60405161089781610ab7565b6001815260038582014281526040830186815260608401918683523360005283895260406000208760005289526108e2604060002095511515869060ff801983541691151516179055565b51600185015551600284015551910155610849565b6040516351d49ff760e11b8152600490fd5b90508581813d8311610938575b6109208183610ad3565b81010312610139575180151581036101395786610834565b503d610916565b6040513d6000823e3d90fd5b604051623f613760e71b8152600490fd5b50634e487b7160e01b60009081526032600452fd5b634e487b7160e01b60009081526032600452fd5b604051631ea4813d60e21b8152600490fd5b83546001600160a01b03168552909301926001928301920161078b565b34610139576040366003190112610139576001600160a01b036109d5610a85565b16600052600360205260406000206024356000526020526080604060002060ff8154169060018101549060036002820154910154916040519315158452602084015260408301526060820152f35b34610139576000366003190112610139576001546040516001600160a01b039091168152602090f35b346101395760203660031901126101395760043580151580910361013957610a72610c2b565b60ff801960055416911617600555600080f35b600435906001600160a01b038216820361013957565b6060810190811067ffffffffffffffff8211176105e657604052565b6080810190811067ffffffffffffffff8211176105e657604052565b90601f8019910116810190811067ffffffffffffffff8211176105e657604052565b90600182811c92168015610b25575b6020831014610b0f57565b634e487b7160e01b600052602260045260246000fd5b91607f1691610b04565b90604051918260008254610b4281610af5565b90818452602094600191600181169081600014610bb25750600114610b73575b505050610b7192500383610ad3565b565b600090815285812095935091905b818310610b9a575050610b719350820101388080610b62565b85548884018501529485019487945091830191610b81565b92505050610b7194925060ff191682840152151560051b820101388080610b62565b919082519283825260005b848110610c00575050826000602080949584010152601f8019910116010190565b602081830181015184830182015201610bdf565b818110610c1f575050565b60008155600101610c14565b6000546001600160a01b03163303610c3f57565b60405163118cdaa760e01b8152336004820152602490fd5b60ff60055416610cb25760405162461bcd60e51b815260206004820152602360248201527f50726f64756374696f6e207665726966696572206e6f7420696d706c656d656e6044820152621d195960ea1b6064820152608490fd5b15159081610cbe575090565b6003915010159056fea2646970667358221220260eb3e36123cb1b23808f1156a175d6643ecc68061eb395c2014592a2e4d17b64736f6c63430008180033",
  "devdoc": {
    "details": "In MVP, uses a simplified verification; production would use Noir verifier",
    "errors": {
      "OwnableInvalidOwner(address)": [
        {
          "details": "The owner is not a valid owner account. (eg. `address(0)`)"
        }
      ],
      "OwnableUnauthorizedAccount(address)": [
        {
          "details": "The caller account is not authorized to perform an operation."
        }
      ]
    },
    "kind": "dev",
    "methods": {
      "addPolicy(bytes32,string,address[])": {
        "params": {
          "allowedIssuers": "Array of allowed issuer addresses",
          "policyId": "Unique policy identifier",
          "schemaId": "The credential schema (e.g., \"kyc_v1\", \"age_check\")"
        }
      },
      "isVerified(address,bytes32)": {
        "params": {
          "policyId": "The policy identifier",
          "user": "The user address"
        },
        "returns": {
          "_0": "bool True if verified and not expired"
        }
      },
      "owner()": {
        "details": "Returns the address of the current owner."
      },
      "renounceOwnership()": {
        "details": "Leaves the contract without owner. It will not be possible to call `onlyOwner` functions. Can only be called by the current owner. NOTE: Renouncing ownership will leave the contract without an owner, thereby disabling any functionality that is only available to the owner."
      },
      "transferOwnership(address)": {
        "details": "Transfers ownership of the contract to a new account (`newOwner`). Can only be called by the current owner."
      },
      "verifyProof(bytes,bytes32[],bytes32)": {
        "params": {
          "policyId": "The policy to verify against",
          "proof": "The ZK proof bytes (Noir proof in production)",
          "publicSignals": "Public signals: [commitment, policyId, nonce, ...]"
        },
        "returns": {
          "_0": "bool True if proof is valid"
        }
      }
    },
    "title": "ProofConsumer",
    "version": 1
  },
  "userdoc": {
    "kind": "user",
    "methods": {
      "addPolicy(bytes32,string,address[])": {
        "notice": "Add a verification policy"
      },
      "isVerified(address,bytes32)": {
        "notice": "Check if user has valid verification for a policy"
      },
      "setMockVerificationEnabled(bool)": {
        "notice": "Toggle mock verification mode (owner only)"
      },
      "setVaultAnchor(address)": {
        "notice": "Update vault anchor reference"
      },
      "verifyProof(bytes,bytes32[],bytes32)": {
        "notice": "Verify a ZK proof for a given policy"
      }
    },
    "notice": "Verifies ZK proofs for credential predicates (e.g., age >= 18, KYC passed)",
    "version": 1
  },
  "storageLayout": {
    "storage": [
      {
        "astId": 1327,
        "contract": "contracts/ProofConsumer.sol:ProofConsumer",
        "label": "_owner",
        "offset": 0,
        "slot": "0",
        "type": "t_address"
      },
      {
        "astId": 2564,
        "contract": "contracts/ProofConsumer.sol:ProofConsumer",
        "label": "vaultAnchor",
        "offset": 0,
        "slot": "1",
        "type": "t_contract(IVaultAnchor)3156"
      },
      {
        "astId": 2569,
        "contract": "contracts/ProofConsumer.sol:ProofConsumer",
        "label": "policies",
        "offset": 0,
        "slot": "2",
        "type": "t_mapping(t_bytes32,t_struct(Policy)2552_storage)"
      },
      {
        "astId": 2576,
        "contract": "contracts/ProofConsumer.sol:ProofConsumer",
        "label": "verifications",
        "offset": 0,
        "slot": "3",
        "type": "t_mapping(t_address,t_mapping(t_bytes32,t_struct(VerificationResult)2561_storage))"
      },
      {
        "astId": 2580,
        "contract": "contracts/ProofConsumer.sol:ProofConsumer",
        "label": "nonces",
        "offset": 0,
        "slot": "4",
        "type": "t_mapping(t_address,t_uint256)"
      },
      {
        "astId": 2583,
        "contract": "contracts/ProofConsumer.sol:ProofConsumer",
        "label": "mockVerificationEnabled",
        "offset": 0,
        "slot": "5",
        "type": "t_bool"
      }
    ],
    "types": {
      "t_address": {
        "encoding": "inplace",
        "label": "address",
        "numberOfBytes": "20"
      },
      "t_array(t_address)dyn_storage": {
        "base": "t_address",
        "encoding": "dynamic_array",
        "label": "address[]",
        "numberOfBytes": "32"
      },
      "t_bool": {
        "encoding": "inplace",
        "label": "bool",
        "numberOfBytes": "1"
      },
      "t_bytes32": {
        "encoding": "inplace",
        "label": "bytes32",
        "numberOfBytes": "32"
      },
      "t_contract(IVaultAnchor)3156": {
        "encoding": "inplace",
        "label": "contract IVaultAnchor",
        "numberOfBytes": "20"
      },
      "t_mapping(t_address,t_mapping(t_bytes32,t_struct(VerificationResult)2561_storage))": {
        "encoding": "mapping",
        "key": "t_address",
        "label": "mapping(address => mapping(bytes32 => struct ProofConsumer.VerificationResult))",
        "numberOfBytes": "32",
        "value": "t_mapping(t_bytes32,t_struct(VerificationResult)2561_storage)"
      },
      "t_mapping(t_address,t_uint256)": {
        "encoding": "mapping",
        "key": "t_address",
        "label": "mapping(address => uint256)",
        "numberOfBytes": "32",
        "value": "t_uint256"
      },
      "t_mapping(t_bytes32,t_struct(Policy)2552_storage)": {
        "encoding": "mapping",
        "key": "t_bytes32",
        "label": "mapping(bytes32 => struct ProofConsumer.Policy)",
        "numberOfBytes": "32",
        "value": "t_struct(Policy)2552_storage"
      },
      "t_mapping(t_bytes32,t_struct(VerificationResult)2561_storage)": {
        "encoding": "mapping",
        "key": "t_bytes32",
        "label": "mapping(bytes32 => struct ProofConsumer.VerificationResult)",
        "numberOfBytes": "32",
        "value": "t_struct(VerificationResult)2561_storage"
      },
      "t_string_storage": {
        "encoding": "bytes",
        "label": "string",
        "numberOfBytes": "32"
      },
      "t_struct(Policy)2552_storage": {
        "encoding": "inplace",
        "label": "struct ProofConsumer.Policy",
        "members": [
          {
            "astId": 2546,
            "contract": "contracts/ProofConsumer.sol:ProofConsumer",
            "label": "schemaId",
            "offset": 0,
            "slot": "0",
            "type": "t_string_storage"
          },
          {
            "astId": 2549,
            "contract": "contracts/ProofConsumer.sol:ProofConsumer",
            "label": "allowedIssuers",
            "offset": 0,
            "slot": "1",
            "type": "t_array(t_address)dyn_storage"
          },
          {
            "astId": 2551,
            "contract": "contracts/ProofConsumer.sol:ProofConsumer",
            "label": "active",
            "offset": 0,
            "slot": "2",
            "type": "t_bool"
          }
        ],
        "numberOfBytes": "96"
      },
      "t_struct(VerificationResult)2561_storage": {
        "encoding": "inplace",
        "label": "struct ProofConsumer.VerificationResult",
        "members": [
          {
            "astId": 2554,
            "contract": "contracts/ProofConsumer.sol:ProofConsumer",
            "label": "verified",
            "offset": 0,
            "slot": "0",
            "type": "t_bool"
          },
          {
            "astId": 2556,
            "contract": "contracts/ProofConsumer.sol:ProofConsumer",
            "label": "timestamp",
            "offset": 0,
            "slot": "1",
            "type": "t_uint256"
          },
          {
            "astId": 2558,
            "contract": "contracts/ProofConsumer.sol:ProofConsumer",
            "label": "commitment",
            "offset": 0,
            "slot": "2",
            "type": "t_bytes32"
          },
          {
            "astId": 2560,
            "contract": "contracts/ProofConsumer.sol:ProofConsumer",
            "label": "policyId",
            "offset": 0,
            "slot": "3",
            "type": "t_bytes32"
          }
        ],
        "numberOfBytes": "128"
      },
      "t_uint256": {
        "encoding": "inplace",
        "label": "uint256",
        "numberOfBytes": "32"
      }
    }
  }
}