{
  "address": "0x5BB995757E8Be755967160C256eF2F8e07a3e579",
  "abi": [
    {
      "inputs": [
        {
          "internalType": "address",
          "name": "_endpoint",
          "type": "address"
        },
        {
          "internalType": "address",
          "name": "_owner",
          "type": "address"
        }
      ],
      "stateMutability": "nonpayable",
      "type": "constructor"
    },
    {
      "inputs": [],
      "name": "InvalidDelegate",
      "type": "error"
    },
    {
      "inputs": [],
      "name": "InvalidEndpointCall",
      "type": "error"
    },
    {
      "inputs": [],
      "name": "InvalidMessage",
      "type": "error"
    },
    {
      "inputs": [],
      "name": "LzTokenUnavailable",
      "type": "error"
    },
    {
      "inputs": [
        {
          "internalType": "uint32",
          "name": "eid",
          "type": "uint32"
        }
      ],
      "name": "NoPeer",
      "type": "error"
    },
    {
      "inputs": [
        {
          "internalType": "uint256",
          "name": "msgValue",
          "type": "uint256"
        }
      ],
      "name": "NotEnoughNative",
      "type": "error"
    },
    {
      "inputs": [
        {
          "internalType": "address",
          "name": "addr",
          "type": "address"
        }
      ],
      "name": "OnlyEndpoint",
      "type": "error"
    },
    {
      "inputs": [
        {
          "internalType": "uint32",
          "name": "eid",
          "type": "uint32"
        },
        {
          "internalType": "bytes32",
          "name": "sender",
          "type": "bytes32"
        }
      ],
      "name": "OnlyPeer",
      "type": "error"
    },
    {
      "inputs": [
        {
          "internalType": "address",
          "name": "owner",
          "type": "address"
        }
      ],
      "name": "OwnableInvalidOwner",
      "type": "error"
    },
    {
      "inputs": [
        {
          "internalType": "address",
          "name": "account",
          "type": "address"
        }
      ],
      "name": "OwnableUnauthorizedAccount",
      "type": "error"
    },
    {
      "inputs": [
        {
          "internalType": "address",
          "name": "token",
          "type": "address"
        }
      ],
      "name": "SafeERC20FailedOperation",
      "type": "error"
    },
    {
      "inputs": [],
      "name": "VerificationExpired",
      "type": "error"
    },
    {
      "anonymous": false,
      "inputs": [
        {
          "indexed": true,
          "internalType": "address",
          "name": "previousOwner",
          "type": "address"
        },
        {
          "indexed": true,
          "internalType": "address",
          "name": "newOwner",
          "type": "address"
        }
      ],
      "name": "OwnershipTransferred",
      "type": "event"
    },
    {
      "anonymous": false,
      "inputs": [
        {
          "indexed": false,
          "internalType": "uint32",
          "name": "eid",
          "type": "uint32"
        },
        {
          "indexed": false,
          "internalType": "bytes32",
          "name": "peer",
          "type": "bytes32"
        }
      ],
      "name": "PeerSet",
      "type": "event"
    },
    {
      "anonymous": false,
      "inputs": [
        {
          "indexed": true,
          "internalType": "address",
          "name": "user",
          "type": "address"
        },
        {
          "indexed": true,
          "internalType": "uint32",
          "name": "srcEid",
          "type": "uint32"
        },
        {
          "indexed": false,
          "internalType": "bytes32",
          "name": "policyId",
          "type": "bytes32"
        },
        {
          "indexed": false,
          "internalType": "bytes32",
          "name": "commitment",
          "type": "bytes32"
        },
        {
          "indexed": false,
          "internalType": "uint256",
          "name": "expiry",
          "type": "uint256"
        }
      ],
      "name": "VerificationReceived",
      "type": "event"
    },
    {
      "anonymous": false,
      "inputs": [
        {
          "indexed": true,
          "internalType": "address",
          "name": "user",
          "type": "address"
        },
        {
          "indexed": true,
          "internalType": "uint32",
          "name": "dstEid",
          "type": "uint32"
        },
        {
          "indexed": false,
          "internalType": "bytes32",
          "name": "policyId",
          "type": "bytes32"
        },
        {
          "indexed": false,
          "internalType": "bytes32",
          "name": "commitment",
          "type": "bytes32"
        },
        {
          "indexed": false,
          "internalType": "uint256",
          "name": "expiry",
          "type": "uint256"
        }
      ],
      "name": "VerificationSent",
      "type": "event"
    },
    {
      "inputs": [
        {
          "components": [
            {
              "internalType": "uint32",
              "name": "srcEid",
              "type": "uint32"
            },
            {
              "internalType": "bytes32",
              "name": "sender",
              "type": "bytes32"
            },
            {
              "internalType": "uint64",
              "name": "nonce",
              "type": "uint64"
            }
          ],
          "internalType": "struct Origin",
          "name": "origin",
          "type": "tuple"
        }
      ],
      "name": "allowInitializePath",
      "outputs": [
        {
          "internalType": "bool",
          "name": "",
          "type": "bool"
        }
      ],
      "stateMutability": "view",
      "type": "function"
    },
    {
      "inputs": [],
      "name": "endpoint",
      "outputs": [
        {
          "internalType": "contract ILayerZeroEndpointV2",
          "name": "",
          "type": "address"
        }
      ],
      "stateMutability": "view",
      "type": "function"
    },
    {
      "inputs": [
        {
          "internalType": "address",
          "name": "user",
          "type": "address"
        }
      ],
      "name": "getUserPolicies",
      "outputs": [
        {
          "internalType": "bytes32[]",
          "name": "",
          "type": "bytes32[]"
        }
      ],
      "stateMutability": "view",
      "type": "function"
    },
    {
      "inputs": [
        {
          "internalType": "address",
          "name": "user",
          "type": "address"
        },
        {
          "internalType": "bytes32",
          "name": "policyId",
          "type": "bytes32"
        }
      ],
      "name": "getVerification",
      "outputs": [
        {
          "components": [
            {
              "internalType": "address",
              "name": "user",
              "type": "address"
            },
            {
              "internalType": "bytes32",
              "name": "policyId",
              "type": "bytes32"
            },
            {
              "internalType": "bytes32",
              "name": "commitment",
              "type": "bytes32"
            },
            {
              "internalType": "uint256",
              "name": "expiry",
              "type": "uint256"
            },
            {
              "internalType": "uint32",
              "name": "sourceEid",
              "type": "uint32"
            },
            {
              "internalType": "uint256",
              "name": "timestamp",
              "type": "uint256"
            },
            {
              "internalType": "bool",
              "name": "active",
              "type": "bool"
            }
          ],
          "internalType": "struct IdentityOApp.CrossChainVerification",
          "name": "",
          "type": "tuple"
        }
      ],
      "stateMutability": "view",
      "type": "function"
    },
    {
      "inputs": [
        {
          "components": [
            {
              "internalType": "uint32",
              "name": "srcEid",
              "type": "uint32"
            },
            {
              "internalType": "bytes32",
              "name": "sender",
              "type": "bytes32"
            },
            {
              "internalType": "uint64",
              "name": "nonce",
              "type": "uint64"
            }
          ],
          "internalType": "struct Origin",
          "name": "",
          "type": "tuple"
        },
        {
          "internalType": "bytes",
          "name": "",
          "type": "bytes"
        },
        {
          "internalType": "address",
          "name": "_sender",
          "type": "address"
        }
      ],
      "name": "isComposeMsgSender",
      "outputs": [
        {
          "internalType": "bool",
          "name": "",
          "type": "bool"
        }
      ],
      "stateMutability": "view",
      "type": "function"
    },
    {
      "inputs": [
        {
          "internalType": "address",
          "name": "user",
          "type": "address"
        },
        {
          "internalType": "bytes32",
          "name": "policyId",
          "type": "bytes32"
        }
      ],
      "name": "isVerified",
      "outputs": [
        {
          "internalType": "bool",
          "name": "",
          "type": "bool"
        }
      ],
      "stateMutability": "view",
      "type": "function"
    },
    {
      "inputs": [
        {
          "components": [
            {
              "internalType": "uint32",
              "name": "srcEid",
              "type": "uint32"
            },
            {
              "internalType": "bytes32",
              "name": "sender",
              "type": "bytes32"
            },
            {
              "internalType": "uint64",
              "name": "nonce",
              "type": "uint64"
            }
          ],
          "internalType": "struct Origin",
          "name": "_origin",
          "type": "tuple"
        },
        {
          "internalType": "bytes32",
          "name": "_guid",
          "type": "bytes32"
        },
        {
          "internalType": "bytes",
          "name": "_message",
          "type": "bytes"
        },
        {
          "internalType": "address",
          "name": "_executor",
          "type": "address"
        },
        {
          "internalType": "bytes",
          "name": "_extraData",
          "type": "bytes"
        }
      ],
      "name": "lzReceive",
      "outputs": [],
      "stateMutability": "payable",
      "type": "function"
    },
    {
      "inputs": [
        {
          "internalType": "uint32",
          "name": "",
          "type": "uint32"
        },
        {
          "internalType": "bytes32",
          "name": "",
          "type": "bytes32"
        }
      ],
      "name": "nextNonce",
      "outputs": [
        {
          "internalType": "uint64",
          "name": "nonce",
          "type": "uint64"
        }
      ],
      "stateMutability": "view",
      "type": "function"
    },
    {
      "inputs": [],
      "name": "oAppVersion",
      "outputs": [
        {
          "internalType": "uint64",
          "name": "senderVersion",
          "type": "uint64"
        },
        {
          "internalType": "uint64",
          "name": "receiverVersion",
          "type": "uint64"
        }
      ],
      "stateMutability": "pure",
      "type": "function"
    },
    {
      "inputs": [],
      "name": "owner",
      "outputs": [
        {
          "internalType": "address",
          "name": "",
          "type": "address"
        }
      ],
      "stateMutability": "view",
      "type": "function"
    },
    {
      "inputs": [
        {
          "internalType": "uint32",
          "name": "eid",
          "type": "uint32"
        }
      ],
      "name": "peers",
      "outputs": [
        {
          "internalType": "bytes32",
          "name": "peer",
          "type": "bytes32"
        }
      ],
      "stateMutability": "view",
      "type": "function"
    },
    {
      "inputs": [
        {
          "internalType": "uint32",
          "name": "dstEid",
          "type": "uint32"
        },
        {
          "internalType": "bytes",
          "name": "message",
          "type": "bytes"
        },
        {
          "internalType": "bytes",
          "name": "options",
          "type": "bytes"
        },
        {
          "internalType": "bool",
          "name": "payInLzToken",
          "type": "bool"
        }
      ],
      "name": "quote",
      "outputs": [
        {
          "components": [
            {
              "internalType": "uint256",
              "name": "nativeFee",
              "type": "uint256"
            },
            {
              "internalType": "uint256",
              "name": "lzTokenFee",
              "type": "uint256"
            }
          ],
          "internalType": "struct MessagingFee",
          "name": "fee",
          "type": "tuple"
        }
      ],
      "stateMutability": "view",
      "type": "function"
    },
    {
      "inputs": [],
      "name": "renounceOwnership",
      "outputs": [],
      "stateMutability": "nonpayable",
      "type": "function"
    },
    {
      "inputs": [
        {
          "internalType": "uint32",
          "name": "dstEid",
          "type": "uint32"
        },
        {
          "internalType": "address",
          "name": "user",
          "type": "address"
        },
        {
          "internalType": "bytes32",
          "name": "policyId",
          "type": "bytes32"
        },
        {
          "internalType": "bytes32",
          "name": "commitment",
          "type": "bytes32"
        },
        {
          "internalType": "uint256",
          "name": "expiry",
          "type": "uint256"
        },
        {
          "internalType": "bytes",
          "name": "options",
          "type": "bytes"
        }
      ],
      "name": "sendVerification",
      "outputs": [],
      "stateMutability": "payable",
      "type": "function"
    },
    {
      "inputs": [
        {
          "internalType": "address",
          "name": "_delegate",
          "type": "address"
        }
      ],
      "name": "setDelegate",
      "outputs": [],
      "stateMutability": "nonpayable",
      "type": "function"
    },
    {
      "inputs": [
        {
          "internalType": "uint32",
          "name": "_eid",
          "type": "uint32"
        },
        {
          "internalType": "bytes32",
          "name": "_peer",
          "type": "bytes32"
        }
      ],
      "name": "setPeer",
      "outputs": [],
      "stateMutability": "nonpayable",
      "type": "function"
    },
    {
      "inputs": [
        {
          "internalType": "address",
          "name": "newOwner",
          "type": "address"
        }
      ],
      "name": "transferOwnership",
      "outputs": [],
      "stateMutability": "nonpayable",
      "type": "function"
    },
    {
      "inputs": [
        {
          "internalType": "address",
          "name": "",
          "type": "address"
        },
        {
          "internalType": "uint256",
          "name": "",
          "type": "uint256"
        }
      ],
      "name": "userPolicies",
      "outputs": [
        {
          "internalType": "bytes32",
          "name": "",
          "type": "bytes32"
        }
      ],
      "stateMutability": "view",
      "type": "function"
    },
    {
      "inputs": [
        {
          "internalType": "address",
          "name": "",
          "type": "address"
        },
        {
          "internalType": "bytes32",
          "name": "",
          "type": "bytes32"
        }
      ],
      "name": "verifications",
      "outputs": [
        {
          "internalType": "address",
          "name": "user",
          "type": "address"
        },
        {
          "internalType": "bytes32",
          "name": "policyId",
          "type": "bytes32"
        },
        {
          "internalType": "bytes32",
          "name": "commitment",
          "type": "bytes32"
        },
        {
          "internalType": "uint256",
          "name": "expiry",
          "type": "uint256"
        },
        {
          "internalType": "uint32",
          "name": "sourceEid",
          "type": "uint32"
        },
        {
          "internalType": "uint256",
          "name": "timestamp",
          "type": "uint256"
        },
        {
          "internalType": "bool",
          "name": "active",
          "type": "bool"
        }
      ],
      "stateMutability": "view",
      "type": "function"
    }
  ],
  "transactionHash": "0x3214bcd01e8e2005321581bf6e5ac6f997c39377701401703a9a1ce641c358d6",
  "args": [
    "0x6EDCE65403992e310A62460808c4b910D972f10f",
    "0x2F63A7A9Bb198CdCd7f2cA4364eEfAb32253D9D3"
  ],
  "numDeployments": 1,
  "solcInputHash": "854749039810080796d3d68b8effed6d",
  "bytecode": "0x60a0346200017a57620014a9906001600160401b03601f38849003908101601f1916830190828211848310176200017f57808491604096879485528339810103126200017a576020620000528362000195565b926001600160a01b039182916200006a910162000195565b169081156200016257600080546001600160a01b0319811684178255909490839083167f8be0079c531659141344cd1fd0a4f28419497f9722a3daafe3b4186f6b6457e08780a3169081608052813b156200015e57839291602484928751968793849263ca5eb5e160e01b845260048401525af1801562000154576200012d575b83516112fe9081620001ab823960805181818161029c015281816103660152818161064c0152818161076f015281816107d2015281816109ff0152610dcd0152f35b82116200014057508152388080620000eb565b634e487b7160e01b81526041600452602490fd5b84513d84823e3d90fd5b8380fd5b8451631e4fbdf760e01b815260006004820152602490fd5b600080fd5b634e487b7160e01b600052604160045260246000fd5b51906001600160a01b03821682036200017a5756fe608080604052600436101561001357600080fd5b600090813560e01c90816313137d6514610d605750806317442b7014610d3e57806319ac461414610c9057806319c9d9ba14610bfc5780633400288b14610b8d57806335b8947814610a855780633d36adc514610a2e5780635e280f11146109e9578063715018a61461098f5780637d25a05e1461096957806382413eac14610908578063877088c8146104f95780638da5cb5b146104d2578063ba03e2051461041f578063bb0b6a53146103ea578063ca5eb5e11461033a578063eba00707146101bd578063f2fde38b1461012d5763ff7bd03d146100f257600080fd5b3461012a57606036600319011261012a57604060209163ffffffff61011561117b565b16815260018352205460405190602435148152f35b80fd5b503461012a57602036600319011261012a5761014761101d565b61014f6111c6565b6001600160a01b039081169081156101a457600054826bffffffffffffffffffffffff60a01b821617600055167f8be0079c531659141344cd1fd0a4f28419497f9722a3daafe3b4186f6b6457e0600080a380f35b604051631e4fbdf760e01b815260048101849052602490fd5b503461012a57608036600319011261012a576101d7611033565b6001600160401b03602435818111610336576101f790369060040161115d565b906044359081116103365761021090369060040161115d565b916064358015158091036103325761029893604093600060208651610234816110a5565b8281520152600060208651610248816110a5565b82815201526102568461118e565b63ffffffff865195610267876110db565b16855260208501528484015260608301526080820152815180938192631bb8518b60e31b835230906004840161125a565b03817f00000000000000000000000000000000000000000000000000000000000000006001600160a01b03165afa9081156103275782916102e9575b60408260208251918051835201516020820152f35b905060403d604011610320575b61030081836110f6565b81019160408284031261012a575060409161031a916111f2565b386102d4565b503d6102f6565b6040513d84823e3d90fd5b8480fd5b8380fd5b503461012a57602036600319011261012a5761035461101d565b61035c6111c6565b6001600160a01b037f0000000000000000000000000000000000000000000000000000000000000000811691839190833b156103e65760249083604051958694859363ca5eb5e160e01b85521660048401525af18015610327576103be575080f35b6001600160401b0381116103d25760405280f35b634e487b7160e01b82526041600452602482fd5b8280fd5b503461012a57602036600319011261012a57604060209163ffffffff61040e611033565b168152600183522054604051908152f35b503461012a57604036600319011261012a5760c0602091604061044061101d565b6001600160a01b03908116835260028552818320602435845285529120604051909161046b82611074565b82541681526001820154848201526002820154604082015260ff600660038401549384606085015263ffffffff6004820154166080850152600581015460a085015201541615159283910152816104c8575b506040519015158152f35b90504210386104bd565b503461012a578060031936011261012a57546040516001600160a01b039091168152602090f35b5060c036600319011261012a5761050e611033565b602435906001600160a01b03821682036103e65760a4356001600160401b03811161033657610541903690600401610feb565b904260843511156108f7576105a36040519160018060a01b038616602084015260443560408401526064356060840152608435608084015260808352610586836110db565b60405193610593856110a5565b3485528760208601523691611117565b906040516105b0816110c0565b86815286602082015260408051916105c7836110a5565b88835288602084015201528251918234036108df57602084015180610759575b5091610648939160809360206105fc8861118e565b9401511515916040519461060f866110db565b63ffffffff891686526020860152604085015260608401528383015260405180809581946302637a4560e41b835233906004840161125a565b03917f00000000000000000000000000000000000000000000000000000000000000006001600160a01b03165af1801561074e576106df575b5060408051604435815260643560208201526084359181019190915263ffffffff91909116916001600160a01b0316907f171a0fd88ceb9ac6db1a4053eac9dd97b355c9c35918bbee63283250c7ef7e0d9080606081015b0390a380f35b60803d608011610747575b6106f481836110f6565b8101608082820312610332576040519161070d836110c0565b805183526020810151916001600160401b038316830361074357604061073a9281946020870152016111f2565b91015238610681565b8680fd5b503d6106ea565b6040513d86823e3d90fd5b60405163393f876560e21b8152906020826004817f00000000000000000000000000000000000000000000000000000000000000006001600160a01b03165afa9182156108d457899261088c575b506001600160a01b0382161561087a576040516323b872dd60e01b60208281019182523360248401527f00000000000000000000000000000000000000000000000000000000000000006001600160a01b031660448401526064808401949094529282528a91610816816110db565b5190826001600160a01b0386165af11561086f5787513d61086657506001600160a01b0381163b155b156105e757604051635274afe760e01b81526001600160a01b039091166004820152602490fd5b6001141561083f565b6040513d89823e3d90fd5b6040516329b99a9560e11b8152600490fd5b9091506020813d6020116108cc575b816108a8602093836110f6565b810103126108c857516001600160a01b03811681036108c85790386107a7565b8880fd5b3d915061089b565b6040513d8b823e3d90fd5b6040516304fb820960e51b8152346004820152602490fd5b6040516206e81d60ea1b8152600490fd5b503461012a57366003190160a081126109655760601361012a576064356001600160401b03811161096557610941903690600401610feb565b50506084356001600160a01b03811690819003610965576020906040519030148152f35b5080fd5b503461012a57604036600319011261012a57602090610986611033565b50604051908152f35b503461012a578060031936011261012a576109a86111c6565b80546001600160a01b03198116825581906001600160a01b03167f8be0079c531659141344cd1fd0a4f28419497f9722a3daafe3b4186f6b6457e08280a380f35b503461012a578060031936011261012a576040517f00000000000000000000000000000000000000000000000000000000000000006001600160a01b03168152602090f35b503461012a57604036600319011261012a57610a4861101d565b6001600160a01b031681526003602052604081208054602435929083101561012a576020610a768484611046565b90549060031b1c604051908152f35b503461012a57604036600319011261012a5760e0906040610aa461101d565b918060c08351610ab381611074565b82815282602082015282858201528260608201528260808201528260a0820152015260018060a01b03809316815260026020528181206024358252602052209060405190610b0082611074565b825416918282526001810154602083019081526002820154906040840191825260038301546060850190815263ffffffff9283600486015416926080870193845260c060ff600660058901549860a08b01998a5201541697019615158752604051978852516020880152516040870152516060860152511660808401525160a083015251151560c0820152f35b503461012a57604036600319011261012a577f238399d427b947898edb290f5ff0f9109849b1c3ba196a42e35f00c50a54b98b610bc8611033565b60243590610bd46111c6565b63ffffffff16808452600160209081526040808620849055805192835290820192909252a180f35b503461012a57604036600319011261012a5760e0906040610c1b61101d565b9160018060a01b038093168152600260205281812060243582526020522090815416906001810154906002810154600382015463ffffffff6004840154169160ff600660058601549501541694604051968752602087015260408601526060850152608084015260a0830152151560c0820152f35b503461012a57602080600319360112610965576001600160a01b03610cb361101d565b168252600381526040822060405192838383549182815201908193835284832090835b818110610d2a5750505084610cec9103856110f6565b60405193838594850191818652518092526040850193925b828110610d1357505050500390f35b835185528695509381019392810192600101610d04565b825484529286019260019283019201610cd6565b503461012a578060031936011261012a57604080516001815260026020820152f35b9050366003190160e081126103e657606013610965576001600160401b039060843582811161033657610d97903690600401610feb565b6001600160a01b03939192909160a43585811603610fe75760c435908111610fe757610dc7903690600401610feb565b505033847f00000000000000000000000000000000000000000000000000000000000000001603610fd25750610e03610dfe61117b565b61118e565b602435809103610fa2575081608091810103126103e6578035908282168092036103365760208101356060604083013592013593428511156108f757836006610e4a61117b565b928860405191610e5983611074565b848352602083018781526040840189815260608501918c8352608086019363ffffffff809a168552604060a088019642885260c089019a60018c52815260026020528181208d8252602052209651166bffffffffffffffffffffffff60a01b875416178655516001860155516002850155516003840155856004840191511663ffffffff19825416179055516005820155019051151560ff8019835416911617905583865260036020526040862080549068010000000000000000821015610f8e5791610f52827ff86d83640286ddc16b86033f36d6b7e4e2c5de59184a4102ecd64f945db7a2ae96959460016106d995018155611046565b81549060031b9085821b91600019901b1916179055610f6f61117b565b1695604051938493846040919493926060820195825260208201520152565b634e487b7160e01b88526041600452602488fd5b610faa61117b565b60405163309afaf360e21b815263ffffffff9190911660048201526024810191909152604490fd5b6391ac5e4f60e01b8152336004820152602490fd5b8580fd5b9181601f84011215611018578235916001600160401b038311611018576020838186019501011161101857565b600080fd5b600435906001600160a01b038216820361101857565b6004359063ffffffff8216820361101857565b805482101561105e5760005260206000200190600090565b634e487b7160e01b600052603260045260246000fd5b60e081019081106001600160401b0382111761108f57604052565b634e487b7160e01b600052604160045260246000fd5b604081019081106001600160401b0382111761108f57604052565b606081019081106001600160401b0382111761108f57604052565b60a081019081106001600160401b0382111761108f57604052565b90601f801991011681019081106001600160401b0382111761108f57604052565b9291926001600160401b03821161108f5760405191611140601f8201601f1916602001846110f6565b829481845281830111611018578281602093846000960137010152565b9080601f830112156110185781602061117893359101611117565b90565b60043563ffffffff811681036110185790565b63ffffffff168060005260016020526040600020549081156111ae575090565b6024906040519063f6ff4fb760e01b82526004820152fd5b6000546001600160a01b031633036111da57565b60405163118cdaa760e01b8152336004820152602490fd5b91908260409103126110185760405161120a816110a5565b6020808294805184520151910152565b919082519283825260005b848110611246575050826000602080949584010152601f8019910116010190565b602081830181015184830182015201611225565b906020909392936040835263ffffffff815116604084015281810151606084015260806112ae611298604084015160a08488015260e087019061121a565b6060840151868203603f190160a088015261121a565b910151151560c08401526001600160a01b0390941691015256fea26469706673582212203af776fdd71b769da35508e80c76b9d0ba7ce97acd4bd8c9104a4e15f6e355ca64736f6c63430008180033",
  "devdoc": {
    "details": "Sends minimal verified flags between chains without PII",
    "errors": {
      "OwnableInvalidOwner(address)": [
        {
          "details": "The owner is not a valid owner account. (eg. `address(0)`)"
        }
      ],
      "OwnableUnauthorizedAccount(address)": [
        {
          "details": "The caller account is not authorized to perform an operation."
        }
      ],
      "SafeERC20FailedOperation(address)": [
        {
          "details": "An operation with an ERC-20 token failed."
        }
      ]
    },
    "kind": "dev",
    "methods": {
      "allowInitializePath((uint32,bytes32,uint64))": {
        "details": "This indicates to the endpoint that the OApp has enabled msgs for this particular path to be received.This defaults to assuming if a peer has been set, its initialized. Can be overridden by the OApp if there is other logic to determine this.",
        "params": {
          "origin": "The origin information containing the source endpoint and sender address."
        },
        "returns": {
          "_0": "Whether the path has been initialized."
        }
      },
      "constructor": {
        "params": {
          "_endpoint": "LayerZero endpoint address",
          "_owner": "Contract owner"
        }
      },
      "getUserPolicies(address)": {
        "params": {
          "user": "User address"
        }
      },
      "getVerification(address,bytes32)": {
        "params": {
          "policyId": "Policy identifier",
          "user": "User address"
        }
      },
      "isComposeMsgSender((uint32,bytes32,uint64),bytes,address)": {
        "details": "_origin The origin information containing the source endpoint and sender address.  - srcEid: The source chain endpoint ID.  - sender: The sender address on the src chain.  - nonce: The nonce of the message._message The lzReceive payload.Applications can optionally choose to implement separate composeMsg senders that are NOT the bridging layer.The default sender IS the OAppReceiver implementer.",
        "params": {
          "_sender": "The sender address."
        },
        "returns": {
          "_0": "isSender Is a valid sender."
        }
      },
      "isVerified(address,bytes32)": {
        "params": {
          "policyId": "Policy identifier",
          "user": "User address"
        },
        "returns": {
          "_0": "bool True if valid verification exists"
        }
      },
      "lzReceive((uint32,bytes32,uint64),bytes32,bytes,address,bytes)": {
        "details": "Entry point for receiving messages or packets from the endpoint.Entry point for receiving msg/packet from the LayerZero endpoint.",
        "params": {
          "_executor": "The address of the executor for the received message.",
          "_extraData": "Additional arbitrary data provided by the corresponding executor.",
          "_guid": "The unique identifier for the received LayerZero message.",
          "_message": "The payload of the received message.",
          "_origin": "The origin information containing the source endpoint and sender address.  - srcEid: The source chain endpoint ID.  - sender: The sender address on the src chain.  - nonce: The nonce of the message."
        }
      },
      "nextNonce(uint32,bytes32)": {
        "details": "_srcEid The source endpoint ID._sender The sender address.The path nonce starts from 1. If 0 is returned it means that there is NO nonce ordered enforcement.Is required by the off-chain executor to determine the OApp expects msg execution is ordered.This is also enforced by the OApp.By default this is NOT enabled. ie. nextNonce is hardcoded to return 0.",
        "returns": {
          "nonce": "The next nonce."
        }
      },
      "oAppVersion()": {
        "returns": {
          "receiverVersion": "The version of the OAppReceiver.sol implementation.",
          "senderVersion": "The version of the OAppSender.sol implementation."
        }
      },
      "owner()": {
        "details": "Returns the address of the current owner."
      },
      "quote(uint32,bytes,bytes,bool)": {
        "params": {
          "dstEid": "Destination endpoint ID",
          "message": "Message payload",
          "options": "Execution options",
          "payInLzToken": "Whether to pay in LZ token"
        }
      },
      "renounceOwnership()": {
        "details": "Leaves the contract without owner. It will not be possible to call `onlyOwner` functions. Can only be called by the current owner. NOTE: Renouncing ownership will leave the contract without an owner, thereby disabling any functionality that is only available to the owner."
      },
      "sendVerification(uint32,address,bytes32,bytes32,uint256,bytes)": {
        "params": {
          "commitment": "Credential commitment hash",
          "dstEid": "Destination chain endpoint ID",
          "expiry": "Expiration timestamp",
          "options": "LayerZero execution options",
          "policyId": "Policy identifier",
          "user": "User address"
        }
      },
      "setDelegate(address)": {
        "details": "Only the owner/admin of the OApp can call this function.Provides the ability for a delegate to set configs, on behalf of the OApp, directly on the Endpoint contract.",
        "params": {
          "_delegate": "The address of the delegate to be set."
        }
      },
      "setPeer(uint32,bytes32)": {
        "details": "Only the owner/admin of the OApp can call this function.Indicates that the peer is trusted to send LayerZero messages to this OApp.Set this to bytes32(0) to remove the peer address.Peer is a bytes32 to accommodate non-evm chains.",
        "params": {
          "_eid": "The endpoint ID.",
          "_peer": "The address of the peer to be associated with the corresponding endpoint."
        }
      },
      "transferOwnership(address)": {
        "details": "Transfers ownership of the contract to a new account (`newOwner`). Can only be called by the current owner."
      }
    },
    "title": "IdentityOApp",
    "version": 1
  },
  "userdoc": {
    "kind": "user",
    "methods": {
      "allowInitializePath((uint32,bytes32,uint64))": {
        "notice": "Checks if the path initialization is allowed based on the provided origin."
      },
      "constructor": {
        "notice": "Constructor"
      },
      "endpoint()": {
        "notice": "Retrieves the LayerZero endpoint associated with the OApp."
      },
      "getUserPolicies(address)": {
        "notice": "Get all policy IDs for a user"
      },
      "getVerification(address,bytes32)": {
        "notice": "Get verification details"
      },
      "isComposeMsgSender((uint32,bytes32,uint64),bytes,address)": {
        "notice": "Indicates whether an address is an approved composeMsg sender to the Endpoint."
      },
      "isVerified(address,bytes32)": {
        "notice": "Check if user has valid cross-chain verification"
      },
      "nextNonce(uint32,bytes32)": {
        "notice": "Retrieves the next nonce for a given source endpoint and sender address."
      },
      "oAppVersion()": {
        "notice": "Retrieves the OApp version information."
      },
      "peers(uint32)": {
        "notice": "Retrieves the peer (OApp) associated with a corresponding endpoint."
      },
      "quote(uint32,bytes,bytes,bool)": {
        "notice": "Quote the fee for sending a message"
      },
      "sendVerification(uint32,address,bytes32,bytes32,uint256,bytes)": {
        "notice": "Send verification to another chain"
      },
      "setDelegate(address)": {
        "notice": "Sets the delegate address for the OApp."
      },
      "setPeer(uint32,bytes32)": {
        "notice": "Sets the peer address (OApp instance) for a corresponding endpoint."
      }
    },
    "notice": "Cross-chain verification marker propagation via LayerZero v2",
    "version": 1
  },
  "storageLayout": {
    "storage": [
      {
        "astId": 1327,
        "contract": "contracts/IdentityOApp.sol:IdentityOApp",
        "label": "_owner",
        "offset": 0,
        "slot": "0",
        "type": "t_address"
      },
      {
        "astId": 64,
        "contract": "contracts/IdentityOApp.sol:IdentityOApp",
        "label": "peers",
        "offset": 0,
        "slot": "1",
        "type": "t_mapping(t_uint32,t_bytes32)"
      },
      {
        "astId": 2266,
        "contract": "contracts/IdentityOApp.sol:IdentityOApp",
        "label": "verifications",
        "offset": 0,
        "slot": "2",
        "type": "t_mapping(t_address,t_mapping(t_bytes32,t_struct(CrossChainVerification)2259_storage))"
      },
      {
        "astId": 2271,
        "contract": "contracts/IdentityOApp.sol:IdentityOApp",
        "label": "userPolicies",
        "offset": 0,
        "slot": "3",
        "type": "t_mapping(t_address,t_array(t_bytes32)dyn_storage)"
      }
    ],
    "types": {
      "t_address": {
        "encoding": "inplace",
        "label": "address",
        "numberOfBytes": "20"
      },
      "t_array(t_bytes32)dyn_storage": {
        "base": "t_bytes32",
        "encoding": "dynamic_array",
        "label": "bytes32[]",
        "numberOfBytes": "32"
      },
      "t_bool": {
        "encoding": "inplace",
        "label": "bool",
        "numberOfBytes": "1"
      },
      "t_bytes32": {
        "encoding": "inplace",
        "label": "bytes32",
        "numberOfBytes": "32"
      },
      "t_mapping(t_address,t_array(t_bytes32)dyn_storage)": {
        "encoding": "mapping",
        "key": "t_address",
        "label": "mapping(address => bytes32[])",
        "numberOfBytes": "32",
        "value": "t_array(t_bytes32)dyn_storage"
      },
      "t_mapping(t_address,t_mapping(t_bytes32,t_struct(CrossChainVerification)2259_storage))": {
        "encoding": "mapping",
        "key": "t_address",
        "label": "mapping(address => mapping(bytes32 => struct IdentityOApp.CrossChainVerification))",
        "numberOfBytes": "32",
        "value": "t_mapping(t_bytes32,t_struct(CrossChainVerification)2259_storage)"
      },
      "t_mapping(t_bytes32,t_struct(CrossChainVerification)2259_storage)": {
        "encoding": "mapping",
        "key": "t_bytes32",
        "label": "mapping(bytes32 => struct IdentityOApp.CrossChainVerification)",
        "numberOfBytes": "32",
        "value": "t_struct(CrossChainVerification)2259_storage"
      },
      "t_mapping(t_uint32,t_bytes32)": {
        "encoding": "mapping",
        "key": "t_uint32",
        "label": "mapping(uint32 => bytes32)",
        "numberOfBytes": "32",
        "value": "t_bytes32"
      },
      "t_struct(CrossChainVerification)2259_storage": {
        "encoding": "inplace",
        "label": "struct IdentityOApp.CrossChainVerification",
        "members": [
          {
            "astId": 2246,
            "contract": "contracts/IdentityOApp.sol:IdentityOApp",
            "label": "user",
            "offset": 0,
            "slot": "0",
            "type": "t_address"
          },
          {
            "astId": 2248,
            "contract": "contracts/IdentityOApp.sol:IdentityOApp",
            "label": "policyId",
            "offset": 0,
            "slot": "1",
            "type": "t_bytes32"
          },
          {
            "astId": 2250,
            "contract": "contracts/IdentityOApp.sol:IdentityOApp",
            "label": "commitment",
            "offset": 0,
            "slot": "2",
            "type": "t_bytes32"
          },
          {
            "astId": 2252,
            "contract": "contracts/IdentityOApp.sol:IdentityOApp",
            "label": "expiry",
            "offset": 0,
            "slot": "3",
            "type": "t_uint256"
          },
          {
            "astId": 2254,
            "contract": "contracts/IdentityOApp.sol:IdentityOApp",
            "label": "sourceEid",
            "offset": 0,
            "slot": "4",
            "type": "t_uint32"
          },
          {
            "astId": 2256,
            "contract": "contracts/IdentityOApp.sol:IdentityOApp",
            "label": "timestamp",
            "offset": 0,
            "slot": "5",
            "type": "t_uint256"
          },
          {
            "astId": 2258,
            "contract": "contracts/IdentityOApp.sol:IdentityOApp",
            "label": "active",
            "offset": 0,
            "slot": "6",
            "type": "t_bool"
          }
        ],
        "numberOfBytes": "224"
      },
      "t_uint256": {
        "encoding": "inplace",
        "label": "uint256",
        "numberOfBytes": "32"
      },
      "t_uint32": {
        "encoding": "inplace",
        "label": "uint32",
        "numberOfBytes": "4"
      }
    }
  }
}